:100000000BC018C017C016C015C014C013C012C052
:1000100011C010C00FC00EC011241FBECFEDCDBF48
:1000200020E0A0E6B0E001C01D92A236B207E1F7E1
:1000300002D031C0E5CFD09AD89A109261001092C8
:10004000600087EA91E60197F1F700C00000809117
:100050006000909161000196909361008093600030
:100060000A977CF312C087EA91E60197F1F700C086
:100070000000809160009091610001969093610072
:10008000809360000A977CF3D7CFD89810926100D4
:0A00900010926000E8CFF894FFCF53
:00000001FF
